{
  "contracts/DVS.sol": {
    "Candidate": {
      "abi": [
        {
          "anonymous": false,
          "inputs": [
            {
              "indexed": true,
              "internalType": "address",
              "name": "host_",
              "type": "address"
            }
          ],
          "name": "constructor_",
          "type": "event"
        },
        {
          "anonymous": false,
          "inputs": [
            {
              "indexed": true,
              "internalType": "uint256",
              "name": "resetCount",
              "type": "uint256"
            }
          ],
          "name": "resetElection_",
          "type": "event"
        },
        {
          "anonymous": false,
          "inputs": [
            {
              "indexed": true,
              "internalType": "uint256",
              "name": "endTime_",
              "type": "uint256"
            }
          ],
          "name": "setElection_time_",
          "type": "event"
        },
        {
          "inputs": [
            {
              "internalType": "string",
              "name": "name_",
              "type": "string"
            },
            {
              "internalType": "uint256",
              "name": "id_",
              "type": "uint256"
            }
          ],
          "name": "addCandidate",
          "outputs": [],
          "stateMutability": "nonpayable",
          "type": "function"
        },
        {
          "inputs": [],
          "name": "getCandidates",
          "outputs": [
            {
              "components": [
                {
                  "internalType": "string",
                  "name": "name",
                  "type": "string"
                },
                {
                  "internalType": "uint256",
                  "name": "id",
                  "type": "uint256"
                },
                {
                  "internalType": "uint256",
                  "name": "voteCount",
                  "type": "uint256"
                }
              ],
              "internalType": "struct Election.Candidate_[]",
              "name": "",
              "type": "tuple[]"
            }
          ],
          "stateMutability": "view",
          "type": "function"
        },
        {
          "inputs": [
            {
              "internalType": "uint256",
              "name": "id",
              "type": "uint256"
            }
          ],
          "name": "getCandidates_votecount",
          "outputs": [
            {
              "internalType": "uint256",
              "name": "",
              "type": "uint256"
            }
          ],
          "stateMutability": "view",
          "type": "function"
        },
        {
          "inputs": [],
          "name": "getElection_time",
          "outputs": [
            {
              "internalType": "uint256",
              "name": "",
              "type": "uint256"
            }
          ],
          "stateMutability": "view",
          "type": "function"
        },
        {
          "inputs": [],
          "name": "getResetElection_count",
          "outputs": [
            {
              "internalType": "uint256",
              "name": "",
              "type": "uint256"
            }
          ],
          "stateMutability": "view",
          "type": "function"
        },
        {
          "inputs": [
            {
              "internalType": "uint256",
              "name": "id_",
              "type": "uint256"
            }
          ],
          "name": "removeCandidate",
          "outputs": [],
          "stateMutability": "nonpayable",
          "type": "function"
        },
        {
          "inputs": [],
          "name": "resetElection",
          "outputs": [],
          "stateMutability": "nonpayable",
          "type": "function"
        },
        {
          "inputs": [
            {
              "internalType": "uint256",
              "name": "weeks_",
              "type": "uint256"
            },
            {
              "internalType": "uint256",
              "name": "days_",
              "type": "uint256"
            },
            {
              "internalType": "uint256",
              "name": "hours_",
              "type": "uint256"
            },
            {
              "internalType": "uint256",
              "name": "minutes_",
              "type": "uint256"
            },
            {
              "internalType": "uint256",
              "name": "seconds_",
              "type": "uint256"
            }
          ],
          "name": "startElection",
          "outputs": [],
          "stateMutability": "nonpayable",
          "type": "function"
        }
      ],
      "evm": {
        "bytecode": {
          "linkReferences": {},
          "object": "6080604052600060015534801561001557600080fd5b50336000806101000a81548173ffffffffffffffffffffffffffffffffffffffff021916908373ffffffffffffffffffffffffffffffffffffffff16021790555060008054906101000a900473ffffffffffffffffffffffffffffffffffffffff1673ffffffffffffffffffffffffffffffffffffffff167f0b41a216fea24e5c7f23614889e0b25abb2e08d2eb1b497dec255157ff953d0a60405160405180910390a2611b14806100c86000396000f3fe608060405234801561001057600080fd5b50600436106100885760003560e01c80637af874101161005b5780637af8741014610103578063e23cec7b1461011f578063e8f305231461013b578063f84028d51461014557610088565b806306a49fce1461008d57806309e9d7e2146100ab5780632ed986a7146100c75780634f84d8d8146100e5575b600080fd5b610095610175565b6040516100a29190610e8f565b60405180910390f35b6100c560048036038101906100c09190610ef1565b61027a565b005b6100cf6104f2565b6040516100dc9190610f2d565b60405180910390f35b6100ed61054b565b6040516100fa9190610f2d565b60405180910390f35b61011d60048036038101906101189190610f48565b610555565b005b610139600480360381019061013491906110f8565b6106d4565b005b6101436108d3565b005b61015f600480360381019061015a9190610ef1565b610b2c565b60405161016c9190610f2d565b60405180910390f35b60606002805480602002602001604051908101604052809291908181526020016000905b8282101561027157838290600052602060002090600302016040518060600160405290816000820180546101cc90611183565b80601f01602080910402602001604051908101604052809291908181526020018280546101f890611183565b80156102455780601f1061021a57610100808354040283529160200191610245565b820191906000526020600020905b81548152906001019060200180831161022857829003601f168201915b505050505081526020016001820154815260200160028201548152505081526020019060010190610199565b50505050905090565b60008054906101000a900473ffffffffffffffffffffffffffffffffffffffff1673ffffffffffffffffffffffffffffffffffffffff163373ffffffffffffffffffffffffffffffffffffffff1614610308576040517f08c379a00000000000000000000000000000000000000000000000000000000081526004016102ff90611237565b60405180910390fd5b6003600082815260200190815260200160002060009054906101000a900460ff16610368576040517f08c379a000000000000000000000000000000000000000000000000000000000815260040161035f906112a3565b60405180910390fd5b60095442116103ac576040517f08c379a00000000000000000000000000000000000000000000000000000000081526004016103a390611335565b60405180910390fd5b60005b6002805490508110156104ee5781600282815481106103d1576103d0611355565b5b906000526020600020906003020160010154036104e15760006003600084815260200190815260200160002060006101000a81548160ff0219169083151502179055506002600160028054905061042891906113b3565b8154811061043957610438611355565b5b90600052602060002090600302016002828154811061045b5761045a611355565b5b90600052602060002090600302016000820181600001908161047d91906115a9565b50600182015481600101556002820154816002015590505060028054806104a7576104a6611691565b5b6001900381819060005260206000209060030201600080820160006104cc9190610bfb565b60018201600090556002820160009055505090555b80806001019150506103af565b5050565b60006009544210610538576040517f08c379a000000000000000000000000000000000000000000000000000000000815260040161052f9061170c565b60405180910390fd5b4260095461054691906113b3565b905090565b6000600154905090565b60008054906101000a900473ffffffffffffffffffffffffffffffffffffffff1673ffffffffffffffffffffffffffffffffffffffff163373ffffffffffffffffffffffffffffffffffffffff16146105e3576040517f08c379a00000000000000000000000000000000000000000000000000000000081526004016105da90611237565b60405180910390fd5b60028080549050101561062b576040517f08c379a0000000000000000000000000000000000000000000000000000000008152600401610622906117c4565b60405180910390fd5b80603c8361063991906117e4565b610e108561064791906117e4565b620151808761065691906117e4565b62093a808961066591906117e4565b426106709190611826565b61067a9190611826565b6106849190611826565b61068e9190611826565b6106989190611826565b6009819055506009547fd0620cedbb1e03e8a5c59f460040ef78fd59fb3abf2fce0a3f43a2adf47be5e960405160405180910390a25050505050565b60008054906101000a900473ffffffffffffffffffffffffffffffffffffffff1673ffffffffffffffffffffffffffffffffffffffff163373ffffffffffffffffffffffffffffffffffffffff1614610762576040517f08c379a000000000000000000000000000000000000000000000000000000000815260040161075990611237565b60405180910390fd5b6003600082815260200190815260200160002060009054906101000a900460ff16156107c3576040517f08c379a00000000000000000000000000000000000000000000000000000000081526004016107ba906118a6565b60405180910390fd5b6009544211610807576040517f08c379a00000000000000000000000000000000000000000000000000000000081526004016107fe90611938565b60405180910390fd5b600260405180606001604052808481526020018381526020016000815250908060018154018082558091505060019003906000526020600020906003020160009091909190915060008201518160000190816108639190611958565b506020820151816001015560408201518160020155505060016003600083815260200190815260200160002060006101000a81548160ff02191690831515021790555060048190806001815401808255809150506001900390600052602060002001600090919091909150555050565b60008054906101000a900473ffffffffffffffffffffffffffffffffffffffff1673ffffffffffffffffffffffffffffffffffffffff163373ffffffffffffffffffffffffffffffffffffffff1614610961576040517f08c379a000000000000000000000000000000000000000000000000000000000815260040161095890611237565b60405180910390fd5b60095442106109a5576040517f08c379a000000000000000000000000000000000000000000000000000000000815260040161099c9061170c565b60405180910390fd5b60005b600280549050811015610a0c57600060036000600484815481106109cf576109ce611355565b5b9060005260206000200154815260200190815260200160002060006101000a81548160ff02191690831515021790555080806001019150506109a8565b5060005b600780549050811015610abe5760006005600060088481548110610a3757610a36611355565b5b9060005260206000200154815260200190815260200160002060006101000a81548160ff02191690831515021790555060006006600060088481548110610a8157610a80611355565b5b9060005260206000200154815260200190815260200160002060006101000a81548160ff0219169083151502179055508080600101915050610a10565b5060026000610acd9190610c3b565b60076000610adb9190610c5f565b600060098190555060016000815480929190610af690611a2a565b91905055506001547f255af500d3b382c6aefa7fcb5720ee98710a491c3dd03cd10dc45ec66aa92c4d60405160405180910390a2565b6000806000905060005b600280549050811015610b85578360028281548110610b5857610b57611355565b5b90600052602060002090600302016001015403610b785760019150610b85565b8080600101915050610b36565b6001151582151514610bcc576040517f08c379a0000000000000000000000000000000000000000000000000000000008152600401610bc390611abe565b60405180910390fd5b60028181548110610be057610bdf611355565b5b90600052602060002090600302016002015492505050919050565b508054610c0790611183565b6000825580601f10610c195750610c38565b601f016020900490600052602060002090810190610c379190610c80565b5b50565b5080546000825560030290600052602060002090810190610c5c9190610c9d565b50565b5080546000825590600052602060002090810190610c7d9190610c80565b50565b5b80821115610c99576000816000905550600101610c81565b5090565b5b80821115610cd05760008082016000610cb79190610bfb565b6001820160009055600282016000905550600301610c9e565b5090565b600081519050919050565b600082825260208201905092915050565b6000819050602082019050919050565b600081519050919050565b600082825260208201905092915050565b60005b83811015610d3a578082015181840152602081019050610d1f565b60008484015250505050565b6000601f19601f8301169050919050565b6000610d6282610d00565b610d6c8185610d0b565b9350610d7c818560208601610d1c565b610d8581610d46565b840191505092915050565b6000819050919050565b610da381610d90565b82525050565b60006060830160008301518482036000860152610dc68282610d57565b9150506020830151610ddb6020860182610d9a565b506040830151610dee6040860182610d9a565b508091505092915050565b6000610e058383610da9565b905092915050565b6000602082019050919050565b6000610e2582610cd4565b610e2f8185610cdf565b935083602082028501610e4185610cf0565b8060005b85811015610e7d5784840389528151610e5e8582610df9565b9450610e6983610e0d565b925060208a01995050600181019050610e45565b50829750879550505050505092915050565b60006020820190508181036000830152610ea98184610e1a565b905092915050565b6000604051905090565b600080fd5b600080fd5b610ece81610d90565b8114610ed957600080fd5b50565b600081359050610eeb81610ec5565b92915050565b600060208284031215610f0757610f06610ebb565b5b6000610f1584828501610edc565b91505092915050565b610f2781610d90565b82525050565b6000602082019050610f426000830184610f1e565b92915050565b600080600080600060a08688031215610f6457610f63610ebb565b5b6000610f7288828901610edc565b9550506020610f8388828901610edc565b9450506040610f9488828901610edc565b9350506060610fa588828901610edc565b9250506080610fb688828901610edc565b9150509295509295909350565b600080fd5b600080fd5b7f4e487b7100000000000000000000000000000000000000000000000000000000600052604160045260246000fd5b61100582610d46565b810181811067ffffffffffffffff8211171561102457611023610fcd565b5b80604052505050565b6000611037610eb1565b90506110438282610ffc565b919050565b600067ffffffffffffffff82111561106357611062610fcd565b5b61106c82610d46565b9050602081019050919050565b82818337600083830152505050565b600061109b61109684611048565b61102d565b9050828152602081018484840111156110b7576110b6610fc8565b5b6110c2848285611079565b509392505050565b600082601f8301126110df576110de610fc3565b5b81356110ef848260208601611088565b91505092915050565b6000806040838503121561110f5761110e610ebb565b5b600083013567ffffffffffffffff81111561112d5761112c610ec0565b5b611139858286016110ca565b925050602061114a85828601610edc565b9150509250929050565b7f4e487b7100000000000000000000000000000000000000000000000000000000600052602260045260246000fd5b6000600282049050600182168061119b57607f821691505b6020821081036111ae576111ad611154565b5b50919050565b600082825260208201905092915050565b7f4f6e6c7920686f73742063616e2061636365737320746f20746869732061726560008201527f6121000000000000000000000000000000000000000000000000000000000000602082015250565b60006112216022836111b4565b915061122c826111c5565b604082019050919050565b6000602082019050818103600083015261125081611214565b9050919050565b7f43616e646964617465204944206e6f7420666f756e6421000000000000000000600082015250565b600061128d6017836111b4565b915061129882611257565b602082019050919050565b600060208201905081810360008301526112bc81611280565b9050919050565b7f52656d6f76696e672063616e6469646174652069732070726f6869626974656460008201527f207768656e20656c656374696f6e2068617320737461727465642e0000000000602082015250565b600061131f603b836111b4565b915061132a826112c3565b604082019050919050565b6000602082019050818103600083015261134e81611312565b9050919050565b7f4e487b7100000000000000000000000000000000000000000000000000000000600052603260045260246000fd5b7f4e487b7100000000000000000000000000000000000000000000000000000000600052601160045260246000fd5b60006113be82610d90565b91506113c983610d90565b92508282039050818111156113e1576113e0611384565b5b92915050565b6000815490506113f681611183565b9050919050565b60008190508160005260206000209050919050565b60006020601f8301049050919050565b600082821b905092915050565b60006008830261145f7fffffffffffffffffffffffffffffffffffffffffffffffffffffffffffffffff82611422565b6114698683611422565b95508019841693508086168417925050509392505050565b6000819050919050565b60006114a66114a161149c84610d90565b611481565b610d90565b9050919050565b6000819050919050565b6114c08361148b565b6114d46114cc826114ad565b84845461142f565b825550505050565b600090565b6114e96114dc565b6114f48184846114b7565b505050565b5b818110156115185761150d6000826114e1565b6001810190506114fa565b5050565b601f82111561155d5761152e816113fd565b61153784611412565b81016020851015611546578190505b61155a61155285611412565b8301826114f9565b50505b505050565b600082821c905092915050565b600061158060001984600802611562565b1980831691505092915050565b6000611599838361156f565b9150826002028217905092915050565b8181036115b757505061168f565b6115c0826113e7565b67ffffffffffffffff8111156115d9576115d8610fcd565b5b6115e38254611183565b6115ee82828561151c565b6000601f83116001811461161d576000841561160b578287015490505b611615858261158d565b865550611688565b601f19841661162b876113fd565b9650611636866113fd565b60005b8281101561165e57848901548255600182019150600185019450602081019050611639565b8683101561167b5784890154611677601f89168261156f565b8355505b6001600288020188555050505b5050505050505b565b7f4e487b7100000000000000000000000000000000000000000000000000000000600052603160045260246000fd5b7f456c656374696f6e20686173206e6f7420737461727465642079657421000000600082015250565b60006116f6601d836111b4565b9150611701826116c0565b602082019050919050565b60006020820190508181036000830152611725816116e9565b9050919050565b7f4174206c656173742032206f72206d6f72652043616e6469646174657320617260008201527f6520726571756972656420746f2073746172742074686520456c656374696f6e60208201527f2100000000000000000000000000000000000000000000000000000000000000604082015250565b60006117ae6041836111b4565b91506117b98261172c565b606082019050919050565b600060208201905081810360008301526117dd816117a1565b9050919050565b60006117ef82610d90565b91506117fa83610d90565b925082820261180881610d90565b9150828204841483151761181f5761181e611384565b5b5092915050565b600061183182610d90565b915061183c83610d90565b925082820190508082111561185457611853611384565b5b92915050565b7f43616e6469646174652045786973746564210000000000000000000000000000600082015250565b60006118906012836111b4565b915061189b8261185a565b602082019050919050565b600060208201905081810360008301526118bf81611883565b9050919050565b7f416464696e672063616e6469646174652069732070726f68696269746564207760008201527f68656e20656c656374696f6e2068617320737461727465642e00000000000000602082015250565b60006119226039836111b4565b915061192d826118c6565b604082019050919050565b6000602082019050818103600083015261195181611915565b9050919050565b61196182610d00565b67ffffffffffffffff81111561197a57611979610fcd565b5b6119848254611183565b61198f82828561151c565b600060209050601f8311600181146119c257600084156119b0578287015190505b6119ba858261158d565b865550611a22565b601f1984166119d0866113fd565b60005b828110156119f8578489015182556001820191506020850194506020810190506119d3565b86831015611a155784890151611a11601f89168261156f565b8355505b6001600288020188555050505b505050505050565b6000611a3582610d90565b91507fffffffffffffffffffffffffffffffffffffffffffffffffffffffffffffffff8203611a6757611a66611384565b5b600182019050919050565b7f496e76616c69642043616e646964617465204944210000000000000000000000600082015250565b6000611aa86015836111b4565b9150611ab382611a72565b602082019050919050565b60006020820190508181036000830152611ad781611a9b565b905091905056fea26469706673582212207c7990646b9f404c9a1358a4b72d9a88c5ba8cb86607f9091a900fa20e247b3c64736f6c63430008180033",
          "opcodes": "PUSH1 0x80 PUSH1 0x40 MSTORE PUSH1 0x0 PUSH1 0x1 SSTORE CALLVALUE DUP1 ISZERO PUSH2 0x15 JUMPI PUSH1 0x0 DUP1 REVERT JUMPDEST POP CALLER PUSH1 0x0 DUP1 PUSH2 0x100 EXP DUP2 SLOAD DUP2 PUSH20 0xFFFFFFFFFFFFFFFFFFFFFFFFFFFFFFFFFFFFFFFF MUL NOT AND SWAP1 DUP4 PUSH20 0xFFFFFFFFFFFFFFFFFFFFFFFFFFFFFFFFFFFFFFFF AND MUL OR SWAP1 SSTORE POP PUSH1 0x0 DUP1 SLOAD SWAP1 PUSH2 0x100 EXP SWAP1 DIV PUSH20 0xFFFFFFFFFFFFFFFFFFFFFFFFFFFFFFFFFFFFFFFF AND PUSH20 0xFFFFFFFFFFFFFFFFFFFFFFFFFFFFFFFFFFFFFFFF AND PUSH32 0xB41A216FEA24E5C7F23614889E0B25ABB2E08D2EB1B497DEC255157FF953D0A PUSH1 0x40 MLOAD PUSH1 0x40 MLOAD DUP1 SWAP2 SUB SWAP1 LOG2 PUSH2 0x1B14 DUP1 PUSH2 0xC8 PUSH1 0x0 CODECOPY PUSH1 0x0 RETURN INVALID PUSH1 0x80 PUSH1 0x40 MSTORE CALLVALUE DUP1 ISZERO PUSH2 0x10 JUMPI PUSH1 0x0 DUP1 REVERT JUMPDEST POP PUSH1 0x4 CALLDATASIZE LT PUSH2 0x88 JUMPI PUSH1 0x0 CALLDATALOAD PUSH1 0xE0 SHR DUP1 PUSH4 0x7AF87410 GT PUSH2 0x5B JUMPI DUP1 PUSH4 0x7AF87410 EQ PUSH2 0x103 JUMPI DUP1 PUSH4 0xE23CEC7B EQ PUSH2 0x11F JUMPI DUP1 PUSH4 0xE8F30523 EQ PUSH2 0x13B JUMPI DUP1 PUSH4 0xF84028D5 EQ PUSH2 0x145 JUMPI PUSH2 0x88 JUMP JUMPDEST DUP1 PUSH4 0x6A49FCE EQ PUSH2 0x8D JUMPI DUP1 PUSH4 0x9E9D7E2 EQ PUSH2 0xAB JUMPI DUP1 PUSH4 0x2ED986A7 EQ PUSH2 0xC7 JUMPI DUP1 PUSH4 0x4F84D8D8 EQ PUSH2 0xE5 JUMPI JUMPDEST PUSH1 0x0 DUP1 REVERT JUMPDEST PUSH2 0x95 PUSH2 0x175 JUMP JUMPDEST PUSH1 0x40 MLOAD PUSH2 0xA2 SWAP2 SWAP1 PUSH2 0xE8F JUMP JUMPDEST PUSH1 0x40 MLOAD DUP1 SWAP2 SUB SWAP1 RETURN JUMPDEST PUSH2 0xC5 PUSH1 0x4 DUP1 CALLDATASIZE SUB DUP2 ADD SWAP1 PUSH2 0xC0 SWAP2 SWAP1 PUSH2 0xEF1 JUMP JUMPDEST PUSH2 0x27A JUMP JUMPDEST STOP JUMPDEST PUSH2 0xCF PUSH2 0x4F2 JUMP JUMPDEST PUSH1 0x40 MLOAD PUSH2 0xDC SWAP2 SWAP1 PUSH2 0xF2D JUMP JUMPDEST PUSH1 0x40 MLOAD DUP1 SWAP2 SUB SWAP1 RETURN JUMPDEST PUSH2 0xED PUSH2 0x54B JUMP JUMPDEST PUSH1 0x40 MLOAD PUSH2 0xFA SWAP2 SWAP1 PUSH2 0xF2D JUMP JUMPDEST PUSH1 0x40 MLOAD DUP1 SWAP2 SUB SWAP1 RETURN JUMPDEST PUSH2 0x11D PUSH1 0x4 DUP1 CALLDATASIZE SUB DUP2 ADD SWAP1 PUSH2 0x118 SWAP2 SWAP1 PUSH2 0xF48 JUMP JUMPDEST PUSH2 0x555 JUMP JUMPDEST STOP JUMPDEST PUSH2 0x139 PUSH1 0x4 DUP1 CALLDATASIZE SUB DUP2 ADD SWAP1 PUSH2 0x134 SWAP2 SWAP1 PUSH2 0x10F8 JUMP JUMPDEST PUSH2 0x6D4 JUMP JUMPDEST STOP JUMPDEST PUSH2 0x143 PUSH2 0x8D3 JUMP JUMPDEST STOP JUMPDEST PUSH2 0x15F PUSH1 0x4 DUP1 CALLDATASIZE SUB DUP2 ADD SWAP1 PUSH2 0x15A SWAP2 SWAP1 PUSH2 0xEF1 JUMP JUMPDEST PUSH2 0xB2C JUMP JUMPDEST PUSH1 0x40 MLOAD PUSH2 0x16C SWAP2 SWAP1 PUSH2 0xF2D JUMP JUMPDEST PUSH1 0x40 MLOAD DUP1 SWAP2 SUB SWAP1 RETURN JUMPDEST PUSH1 0x60 PUSH1 0x2 DUP1 SLOAD DUP1 PUSH1 0x20 MUL PUSH1 0x20 ADD PUSH1 0x40 MLOAD SWAP1 DUP2 ADD PUSH1 0x40 MSTORE DUP1 SWAP3 SWAP2 SWAP1 DUP2 DUP2 MSTORE PUSH1 0x20 ADD PUSH1 0x0 SWAP1 JUMPDEST DUP3 DUP3 LT ISZERO PUSH2 0x271 JUMPI DUP4 DUP3 SWAP1 PUSH1 0x0 MSTORE PUSH1 0x20 PUSH1 0x0 KECCAK256 SWAP1 PUSH1 0x3 MUL ADD PUSH1 0x40 MLOAD DUP1 PUSH1 0x60 ADD PUSH1 0x40 MSTORE SWAP1 DUP2 PUSH1 0x0 DUP3 ADD DUP1 SLOAD PUSH2 0x1CC SWAP1 PUSH2 0x1183 JUMP JUMPDEST DUP1 PUSH1 0x1F ADD PUSH1 0x20 DUP1 SWAP2 DIV MUL PUSH1 0x20 ADD PUSH1 0x40 MLOAD SWAP1 DUP2 ADD PUSH1 0x40 MSTORE DUP1 SWAP3 SWAP2 SWAP1 DUP2 DUP2 MSTORE PUSH1 0x20 ADD DUP3 DUP1 SLOAD PUSH2 0x1F8 SWAP1 PUSH2 0x1183 JUMP JUMPDEST DUP1 ISZERO PUSH2 0x245 JUMPI DUP1 PUSH1 0x1F LT PUSH2 0x21A JUMPI PUSH2 0x100 DUP1 DUP4 SLOAD DIV MUL DUP4 MSTORE SWAP2 PUSH1 0x20 ADD SWAP2 PUSH2 0x245 JUMP JUMPDEST DUP3 ADD SWAP2 SWAP1 PUSH1 0x0 MSTORE PUSH1 0x20 PUSH1 0x0 KECCAK256 SWAP1 JUMPDEST DUP2 SLOAD DUP2 MSTORE SWAP1 PUSH1 0x1 ADD SWAP1 PUSH1 0x20 ADD DUP1 DUP4 GT PUSH2 0x228 JUMPI DUP3 SWAP1 SUB PUSH1 0x1F AND DUP3 ADD SWAP2 JUMPDEST POP POP POP POP POP DUP2 MSTORE PUSH1 0x20 ADD PUSH1 0x1 DUP3 ADD SLOAD DUP2 MSTORE PUSH1 0x20 ADD PUSH1 0x2 DUP3 ADD SLOAD DUP2 MSTORE POP POP DUP2 MSTORE PUSH1 0x20 ADD SWAP1 PUSH1 0x1 ADD SWAP1 PUSH2 0x199 JUMP JUMPDEST POP POP POP POP SWAP1 POP SWAP1 JUMP JUMPDEST PUSH1 0x0 DUP1 SLOAD SWAP1 PUSH2 0x100 EXP SWAP1 DIV PUSH20 0xFFFFFFFFFFFFFFFFFFFFFFFFFFFFFFFFFFFFFFFF AND PUSH20 0xFFFFFFFFFFFFFFFFFFFFFFFFFFFFFFFFFFFFFFFF AND CALLER PUSH20 0xFFFFFFFFFFFFFFFFFFFFFFFFFFFFFFFFFFFFFFFF AND EQ PUSH2 0x308 JUMPI PUSH1 0x40 MLOAD PUSH32 0x8C379A000000000000000000000000000000000000000000000000000000000 DUP2 MSTORE PUSH1 0x4 ADD PUSH2 0x2FF SWAP1 PUSH2 0x1237 JUMP JUMPDEST PUSH1 0x40 MLOAD DUP1 SWAP2 SUB SWAP1 REVERT JUMPDEST PUSH1 0x3 PUSH1 0x0 DUP3 DUP2 MSTORE PUSH1 0x20 ADD SWAP1 DUP2 MSTORE PUSH1 0x20 ADD PUSH1 0x0 KECCAK256 PUSH1 0x0 SWAP1 SLOAD SWAP1 PUSH2 0x100 EXP SWAP1 DIV PUSH1 0xFF AND PUSH2 0x368 JUMPI PUSH1 0x40 MLOAD PUSH32 0x8C379A000000000000000000000000000000000000000000000000000000000 DUP2 MSTORE PUSH1 0x4 ADD PUSH2 0x35F SWAP1 PUSH2 0x12A3 JUMP JUMPDEST PUSH1 0x40 MLOAD DUP1 SWAP2 SUB SWAP1 REVERT JUMPDEST PUSH1 0x9 SLOAD TIMESTAMP GT PUSH2 0x3AC JUMPI PUSH1 0x40 MLOAD PUSH32 0x8C379A000000000000000000000000000000000000000000000000000000000 DUP2 MSTORE PUSH1 0x4 ADD PUSH2 0x3A3 SWAP1 PUSH2 0x1335 JUMP JUMPDEST PUSH1 0x40 MLOAD DUP1 SWAP2 SUB SWAP1 REVERT JUMPDEST PUSH1 0x0 JUMPDEST PUSH1 0x2 DUP1 SLOAD SWAP1 POP DUP2 LT ISZERO PUSH2 0x4EE JUMPI DUP2 PUSH1 0x2 DUP3 DUP2 SLOAD DUP2 LT PUSH2 0x3D1 JUMPI PUSH2 0x3D0 PUSH2 0x1355 JUMP JUMPDEST JUMPDEST SWAP1 PUSH1 0x0 MSTORE PUSH1 0x20 PUSH1 0x0 KECCAK256 SWAP1 PUSH1 0x3 MUL ADD PUSH1 0x1 ADD SLOAD SUB PUSH2 0x4E1 JUMPI PUSH1 0x0 PUSH1 0x3 PUSH1 0x0 DUP5 DUP2 MSTORE PUSH1 0x20 ADD SWAP1 DUP2 MSTORE PUSH1 0x20 ADD PUSH1 0x0 KECCAK256 PUSH1 0x0 PUSH2 0x100 EXP DUP2 SLOAD DUP2 PUSH1 0xFF MUL NOT AND SWAP1 DUP4 ISZERO ISZERO MUL OR SWAP1 SSTORE POP PUSH1 0x2 PUSH1 0x1 PUSH1 0x2 DUP1 SLOAD SWAP1 POP PUSH2 0x428 SWAP2 SWAP1 PUSH2 0x13B3 JUMP JUMPDEST DUP2 SLOAD DUP2 LT PUSH2 0x439 JUMPI PUSH2 0x438 PUSH2 0x1355 JUMP JUMPDEST JUMPDEST SWAP1 PUSH1 0x0 MSTORE PUSH1 0x20 PUSH1 0x0 KECCAK256 SWAP1 PUSH1 0x3 MUL ADD PUSH1 0x2 DUP3 DUP2 SLOAD DUP2 LT PUSH2 0x45B JUMPI PUSH2 0x45A PUSH2 0x1355 JUMP JUMPDEST JUMPDEST SWAP1 PUSH1 0x0 MSTORE PUSH1 0x20 PUSH1 0x0 KECCAK256 SWAP1 PUSH1 0x3 MUL ADD PUSH1 0x0 DUP3 ADD DUP2 PUSH1 0x0 ADD SWAP1 DUP2 PUSH2 0x47D SWAP2 SWAP1 PUSH2 0x15A9 JUMP JUMPDEST POP PUSH1 0x1 DUP3 ADD SLOAD DUP2 PUSH1 0x1 ADD SSTORE PUSH1 0x2 DUP3 ADD SLOAD DUP2 PUSH1 0x2 ADD SSTORE SWAP1 POP POP PUSH1 0x2 DUP1 SLOAD DUP1 PUSH2 0x4A7 JUMPI PUSH2 0x4A6 PUSH2 0x1691 JUMP JUMPDEST JUMPDEST PUSH1 0x1 SWAP1 SUB DUP2 DUP2 SWAP1 PUSH1 0x0 MSTORE PUSH1 0x20 PUSH1 0x0 KECCAK256 SWAP1 PUSH1 0x3 MUL ADD PUSH1 0x0 DUP1 DUP3 ADD PUSH1 0x0 PUSH2 0x4CC SWAP2 SWAP1 PUSH2 0xBFB JUMP JUMPDEST PUSH1 0x1 DUP3 ADD PUSH1 0x0 SWAP1 SSTORE PUSH1 0x2 DUP3 ADD PUSH1 0x0 SWAP1 SSTORE POP POP SWAP1 SSTORE JUMPDEST DUP1 DUP1 PUSH1 0x1 ADD SWAP2 POP POP PUSH2 0x3AF JUMP JUMPDEST POP POP JUMP JUMPDEST PUSH1 0x0 PUSH1 0x9 SLOAD TIMESTAMP LT PUSH2 0x538 JUMPI PUSH1 0x40 MLOAD PUSH32 0x8C379A000000000000000000000000000000000000000000000000000000000 DUP2 MSTORE PUSH1 0x4 ADD PUSH2 0x52F SWAP1 PUSH2 0x170C JUMP JUMPDEST PUSH1 0x40 MLOAD DUP1 SWAP2 SUB SWAP1 REVERT JUMPDEST TIMESTAMP PUSH1 0x9 SLOAD PUSH2 0x546 SWAP2 SWAP1 PUSH2 0x13B3 JUMP JUMPDEST SWAP1 POP SWAP1 JUMP JUMPDEST PUSH1 0x0 PUSH1 0x1 SLOAD SWAP1 POP SWAP1 JUMP JUMPDEST PUSH1 0x0 DUP1 SLOAD SWAP1 PUSH2 0x100 EXP SWAP1 DIV PUSH20 0xFFFFFFFFFFFFFFFFFFFFFFFFFFFFFFFFFFFFFFFF AND PUSH20 0xFFFFFFFFFFFFFFFFFFFFFFFFFFFFFFFFFFFFFFFF AND CALLER PUSH20 0xFFFFFFFFFFFFFFFFFFFFFFFFFFFFFFFFFFFFFFFF AND EQ PUSH2 0x5E3 JUMPI PUSH1 0x40 MLOAD PUSH32 0x8C379A000000000000000000000000000000000000000000000000000000000 DUP2 MSTORE PUSH1 0x4 ADD PUSH2 0x5DA SWAP1 PUSH2 0x1237 JUMP JUMPDEST PUSH1 0x40 MLOAD DUP1 SWAP2 SUB SWAP1 REVERT JUMPDEST PUSH1 0x2 DUP1 DUP1 SLOAD SWAP1 POP LT ISZERO PUSH2 0x62B JUMPI PUSH1 0x40 MLOAD PUSH32 0x8C379A000000000000000000000000000000000000000000000000000000000 DUP2 MSTORE PUSH1 0x4 ADD PUSH2 0x622 SWAP1 PUSH2 0x17C4 JUMP JUMPDEST PUSH1 0x40 MLOAD DUP1 SWAP2 SUB SWAP1 REVERT JUMPDEST DUP1 PUSH1 0x3C DUP4 PUSH2 0x639 SWAP2 SWAP1 PUSH2 0x17E4 JUMP JUMPDEST PUSH2 0xE10 DUP6 PUSH2 0x647 SWAP2 SWAP1 PUSH2 0x17E4 JUMP JUMPDEST PUSH3 0x15180 DUP8 PUSH2 0x656 SWAP2 SWAP1 PUSH2 0x17E4 JUMP JUMPDEST PUSH3 0x93A80 DUP10 PUSH2 0x665 SWAP2 SWAP1 PUSH2 0x17E4 JUMP JUMPDEST TIMESTAMP PUSH2 0x670 SWAP2 SWAP1 PUSH2 0x1826 JUMP JUMPDEST PUSH2 0x67A SWAP2 SWAP1 PUSH2 0x1826 JUMP JUMPDEST PUSH2 0x684 SWAP2 SWAP1 PUSH2 0x1826 JUMP JUMPDEST PUSH2 0x68E SWAP2 SWAP1 PUSH2 0x1826 JUMP JUMPDEST PUSH2 0x698 SWAP2 SWAP1 PUSH2 0x1826 JUMP JUMPDEST PUSH1 0x9 DUP2 SWAP1 SSTORE POP PUSH1 0x9 SLOAD PUSH32 0xD0620CEDBB1E03E8A5C59F460040EF78FD59FB3ABF2FCE0A3F43A2ADF47BE5E9 PUSH1 0x40 MLOAD PUSH1 0x40 MLOAD DUP1 SWAP2 SUB SWAP1 LOG2 POP POP POP POP POP JUMP JUMPDEST PUSH1 0x0 DUP1 SLOAD SWAP1 PUSH2 0x100 EXP SWAP1 DIV PUSH20 0xFFFFFFFFFFFFFFFFFFFFFFFFFFFFFFFFFFFFFFFF AND PUSH20 0xFFFFFFFFFFFFFFFFFFFFFFFFFFFFFFFFFFFFFFFF AND CALLER PUSH20 0xFFFFFFFFFFFFFFFFFFFFFFFFFFFFFFFFFFFFFFFF AND EQ PUSH2 0x762 JUMPI PUSH1 0x40 MLOAD PUSH32 0x8C379A000000000000000000000000000000000000000000000000000000000 DUP2 MSTORE PUSH1 0x4 ADD PUSH2 0x759 SWAP1 PUSH2 0x1237 JUMP JUMPDEST PUSH1 0x40 MLOAD DUP1 SWAP2 SUB SWAP1 REVERT JUMPDEST PUSH1 0x3 PUSH1 0x0 DUP3 DUP2 MSTORE PUSH1 0x20 ADD SWAP1 DUP2 MSTORE PUSH1 0x20 ADD PUSH1 0x0 KECCAK256 PUSH1 0x0 SWAP1 SLOAD SWAP1 PUSH2 0x100 EXP SWAP1 DIV PUSH1 0xFF AND ISZERO PUSH2 0x7C3 JUMPI PUSH1 0x40 MLOAD PUSH32 0x8C379A000000000000000000000000000000000000000000000000000000000 DUP2 MSTORE PUSH1 0x4 ADD PUSH2 0x7BA SWAP1 PUSH2 0x18A6 JUMP JUMPDEST PUSH1 0x40 MLOAD DUP1 SWAP2 SUB SWAP1 REVERT JUMPDEST PUSH1 0x9 SLOAD TIMESTAMP GT PUSH2 0x807 JUMPI PUSH1 0x40 MLOAD PUSH32 0x8C379A000000000000000000000000000000000000000000000000000000000 DUP2 MSTORE PUSH1 0x4 ADD PUSH2 0x7FE SWAP1 PUSH2 0x1938 JUMP JUMPDEST PUSH1 0x40 MLOAD DUP1 SWAP2 SUB SWAP1 REVERT JUMPDEST PUSH1 0x2 PUSH1 0x40 MLOAD DUP1 PUSH1 0x60 ADD PUSH1 0x40 MSTORE DUP1 DUP5 DUP2 MSTORE PUSH1 0x20 ADD DUP4 DUP2 MSTORE PUSH1 0x20 ADD PUSH1 0x0 DUP2 MSTORE POP SWAP1 DUP1 PUSH1 0x1 DUP2 SLOAD ADD DUP1 DUP3 SSTORE DUP1 SWAP2 POP POP PUSH1 0x1 SWAP1 SUB SWAP1 PUSH1 0x0 MSTORE PUSH1 0x20 PUSH1 0x0 KECCAK256 SWAP1 PUSH1 0x3 MUL ADD PUSH1 0x0 SWAP1 SWAP2 SWAP1 SWAP2 SWAP1 SWAP2 POP PUSH1 0x0 DUP3 ADD MLOAD DUP2 PUSH1 0x0 ADD SWAP1 DUP2 PUSH2 0x863 SWAP2 SWAP1 PUSH2 0x1958 JUMP JUMPDEST POP PUSH1 0x20 DUP3 ADD MLOAD DUP2 PUSH1 0x1 ADD SSTORE PUSH1 0x40 DUP3 ADD MLOAD DUP2 PUSH1 0x2 ADD SSTORE POP POP PUSH1 0x1 PUSH1 0x3 PUSH1 0x0 DUP4 DUP2 MSTORE PUSH1 0x20 ADD SWAP1 DUP2 MSTORE PUSH1 0x20 ADD PUSH1 0x0 KECCAK256 PUSH1 0x0 PUSH2 0x100 EXP DUP2 SLOAD DUP2 PUSH1 0xFF MUL NOT AND SWAP1 DUP4 ISZERO ISZERO MUL OR SWAP1 SSTORE POP PUSH1 0x4 DUP2 SWAP1 DUP1 PUSH1 0x1 DUP2 SLOAD ADD DUP1 DUP3 SSTORE DUP1 SWAP2 POP POP PUSH1 0x1 SWAP1 SUB SWAP1 PUSH1 0x0 MSTORE PUSH1 0x20 PUSH1 0x0 KECCAK256 ADD PUSH1 0x0 SWAP1 SWAP2 SWAP1 SWAP2 SWAP1 SWAP2 POP SSTORE POP POP JUMP JUMPDEST PUSH1 0x0 DUP1 SLOAD SWAP1 PUSH2 0x100 EXP SWAP1 DIV PUSH20 0xFFFFFFFFFFFFFFFFFFFFFFFFFFFFFFFFFFFFFFFF AND PUSH20 0xFFFFFFFFFFFFFFFFFFFFFFFFFFFFFFFFFFFFFFFF AND CALLER PUSH20 0xFFFFFFFFFFFFFFFFFFFFFFFFFFFFFFFFFFFFFFFF AND EQ PUSH2 0x961 JUMPI PUSH1 0x40 MLOAD PUSH32 0x8C379A000000000000000000000000000000000000000000000000000000000 DUP2 MSTORE PUSH1 0x4 ADD PUSH2 0x958 SWAP1 PUSH2 0x1237 JUMP JUMPDEST PUSH1 0x40 MLOAD DUP1 SWAP2 SUB SWAP1 REVERT JUMPDEST PUSH1 0x9 SLOAD TIMESTAMP LT PUSH2 0x9A5 JUMPI PUSH1 0x40 MLOAD PUSH32 0x8C379A000000000000000000000000000000000000000000000000000000000 DUP2 MSTORE PUSH1 0x4 ADD PUSH2 0x99C SWAP1 PUSH2 0x170C JUMP JUMPDEST PUSH1 0x40 MLOAD DUP1 SWAP2 SUB SWAP1 REVERT JUMPDEST PUSH1 0x0 JUMPDEST PUSH1 0x2 DUP1 SLOAD SWAP1 POP DUP2 LT ISZERO PUSH2 0xA0C JUMPI PUSH1 0x0 PUSH1 0x3 PUSH1 0x0 PUSH1 0x4 DUP5 DUP2 SLOAD DUP2 LT PUSH2 0x9CF JUMPI PUSH2 0x9CE PUSH2 0x1355 JUMP JUMPDEST JUMPDEST SWAP1 PUSH1 0x0 MSTORE PUSH1 0x20 PUSH1 0x0 KECCAK256 ADD SLOAD DUP2 MSTORE PUSH1 0x20 ADD SWAP1 DUP2 MSTORE PUSH1 0x20 ADD PUSH1 0x0 KECCAK256 PUSH1 0x0 PUSH2 0x100 EXP DUP2 SLOAD DUP2 PUSH1 0xFF MUL NOT AND SWAP1 DUP4 ISZERO ISZERO MUL OR SWAP1 SSTORE POP DUP1 DUP1 PUSH1 0x1 ADD SWAP2 POP POP PUSH2 0x9A8 JUMP JUMPDEST POP PUSH1 0x0 JUMPDEST PUSH1 0x7 DUP1 SLOAD SWAP1 POP DUP2 LT ISZERO PUSH2 0xABE JUMPI PUSH1 0x0 PUSH1 0x5 PUSH1 0x0 PUSH1 0x8 DUP5 DUP2 SLOAD DUP2 LT PUSH2 0xA37 JUMPI PUSH2 0xA36 PUSH2 0x1355 JUMP JUMPDEST JUMPDEST SWAP1 PUSH1 0x0 MSTORE PUSH1 0x20 PUSH1 0x0 KECCAK256 ADD SLOAD DUP2 MSTORE PUSH1 0x20 ADD SWAP1 DUP2 MSTORE PUSH1 0x20 ADD PUSH1 0x0 KECCAK256 PUSH1 0x0 PUSH2 0x100 EXP DUP2 SLOAD DUP2 PUSH1 0xFF MUL NOT AND SWAP1 DUP4 ISZERO ISZERO MUL OR SWAP1 SSTORE POP PUSH1 0x0 PUSH1 0x6 PUSH1 0x0 PUSH1 0x8 DUP5 DUP2 SLOAD DUP2 LT PUSH2 0xA81 JUMPI PUSH2 0xA80 PUSH2 0x1355 JUMP JUMPDEST JUMPDEST SWAP1 PUSH1 0x0 MSTORE PUSH1 0x20 PUSH1 0x0 KECCAK256 ADD SLOAD DUP2 MSTORE PUSH1 0x20 ADD SWAP1 DUP2 MSTORE PUSH1 0x20 ADD PUSH1 0x0 KECCAK256 PUSH1 0x0 PUSH2 0x100 EXP DUP2 SLOAD DUP2 PUSH1 0xFF MUL NOT AND SWAP1 DUP4 ISZERO ISZERO MUL OR SWAP1 SSTORE POP DUP1 DUP1 PUSH1 0x1 ADD SWAP2 POP POP PUSH2 0xA10 JUMP JUMPDEST POP PUSH1 0x2 PUSH1 0x0 PUSH2 0xACD SWAP2 SWAP1 PUSH2 0xC3B JUMP JUMPDEST PUSH1 0x7 PUSH1 0x0 PUSH2 0xADB SWAP2 SWAP1 PUSH2 0xC5F JUMP JUMPDEST PUSH1 0x0 PUSH1 0x9 DUP2 SWAP1 SSTORE POP PUSH1 0x1 PUSH1 0x0 DUP2 SLOAD DUP1 SWAP3 SWAP2 SWAP1 PUSH2 0xAF6 SWAP1 PUSH2 0x1A2A JUMP JUMPDEST SWAP2 SWAP1 POP SSTORE POP PUSH1 0x1 SLOAD PUSH32 0x255AF500D3B382C6AEFA7FCB5720EE98710A491C3DD03CD10DC45EC66AA92C4D PUSH1 0x40 MLOAD PUSH1 0x40 MLOAD DUP1 SWAP2 SUB SWAP1 LOG2 JUMP JUMPDEST PUSH1 0x0 DUP1 PUSH1 0x0 SWAP1 POP PUSH1 0x0 JUMPDEST PUSH1 0x2 DUP1 SLOAD SWAP1 POP DUP2 LT ISZERO PUSH2 0xB85 JUMPI DUP4 PUSH1 0x2 DUP3 DUP2 SLOAD DUP2 LT PUSH2 0xB58 JUMPI PUSH2 0xB57 PUSH2 0x1355 JUMP JUMPDEST JUMPDEST SWAP1 PUSH1 0x0 MSTORE PUSH1 0x20 PUSH1 0x0 KECCAK256 SWAP1 PUSH1 0x3 MUL ADD PUSH1 0x1 ADD SLOAD SUB PUSH2 0xB78 JUMPI PUSH1 0x1 SWAP2 POP PUSH2 0xB85 JUMP JUMPDEST DUP1 DUP1 PUSH1 0x1 ADD SWAP2 POP POP PUSH2 0xB36 JUMP JUMPDEST PUSH1 0x1 ISZERO ISZERO DUP3 ISZERO ISZERO EQ PUSH2 0xBCC JUMPI PUSH1 0x40 MLOAD PUSH32 0x8C379A000000000000000000000000000000000000000000000000000000000 DUP2 MSTORE PUSH1 0x4 ADD PUSH2 0xBC3 SWAP1 PUSH2 0x1ABE JUMP JUMPDEST PUSH1 0x40 MLOAD DUP1 SWAP2 SUB SWAP1 REVERT JUMPDEST PUSH1 0x2 DUP2 DUP2 SLOAD DUP2 LT PUSH2 0xBE0 JUMPI PUSH2 0xBDF PUSH2 0x1355 JUMP JUMPDEST JUMPDEST SWAP1 PUSH1 0x0 MSTORE PUSH1 0x20 PUSH1 0x0 KECCAK256 SWAP1 PUSH1 0x3 MUL ADD PUSH1 0x2 ADD SLOAD SWAP3 POP POP POP SWAP2 SWAP1 POP JUMP JUMPDEST POP DUP1 SLOAD PUSH2 0xC07 SWAP1 PUSH2 0x1183 JUMP JUMPDEST PUSH1 0x0 DUP3 SSTORE DUP1 PUSH1 0x1F LT PUSH2 0xC19 JUMPI POP PUSH2 0xC38 JUMP JUMPDEST PUSH1 0x1F ADD PUSH1 0x20 SWAP1 DIV SWAP1 PUSH1 0x0 MSTORE PUSH1 0x20 PUSH1 0x0 KECCAK256 SWAP1 DUP2 ADD SWAP1 PUSH2 0xC37 SWAP2 SWAP1 PUSH2 0xC80 JUMP JUMPDEST JUMPDEST POP JUMP JUMPDEST POP DUP1 SLOAD PUSH1 0x0 DUP3 SSTORE PUSH1 0x3 MUL SWAP1 PUSH1 0x0 MSTORE PUSH1 0x20 PUSH1 0x0 KECCAK256 SWAP1 DUP2 ADD SWAP1 PUSH2 0xC5C SWAP2 SWAP1 PUSH2 0xC9D JUMP JUMPDEST POP JUMP JUMPDEST POP DUP1 SLOAD PUSH1 0x0 DUP3 SSTORE SWAP1 PUSH1 0x0 MSTORE PUSH1 0x20 PUSH1 0x0 KECCAK256 SWAP1 DUP2 ADD SWAP1 PUSH2 0xC7D SWAP2 SWAP1 PUSH2 0xC80 JUMP JUMPDEST POP JUMP JUMPDEST JUMPDEST DUP1 DUP3 GT ISZERO PUSH2 0xC99 JUMPI PUSH1 0x0 DUP2 PUSH1 0x0 SWAP1 SSTORE POP PUSH1 0x1 ADD PUSH2 0xC81 JUMP JUMPDEST POP SWAP1 JUMP JUMPDEST JUMPDEST DUP1 DUP3 GT ISZERO PUSH2 0xCD0 JUMPI PUSH1 0x0 DUP1 DUP3 ADD PUSH1 0x0 PUSH2 0xCB7 SWAP2 SWAP1 PUSH2 0xBFB JUMP JUMPDEST PUSH1 0x1 DUP3 ADD PUSH1 0x0 SWAP1 SSTORE PUSH1 0x2 DUP3 ADD PUSH1 0x0 SWAP1 SSTORE POP PUSH1 0x3 ADD PUSH2 0xC9E JUMP JUMPDEST POP SWAP1 JUMP JUMPDEST PUSH1 0x0 DUP2 MLOAD SWAP1 POP SWAP2 SWAP1 POP JUMP JUMPDEST PUSH1 0x0 DUP3 DUP3 MSTORE PUSH1 0x20 DUP3 ADD SWAP1 POP SWAP3 SWAP2 POP POP JUMP JUMPDEST PUSH1 0x0 DUP2 SWAP1 POP PUSH1 0x20 DUP3 ADD SWAP1 POP SWAP2 SWAP1 POP JUMP JUMPDEST PUSH1 0x0 DUP2 MLOAD SWAP1 POP SWAP2 SWAP1 POP JUMP JUMPDEST PUSH1 0x0 DUP3 DUP3 MSTORE PUSH1 0x20 DUP3 ADD SWAP1 POP SWAP3 SWAP2 POP POP JUMP JUMPDEST PUSH1 0x0 JUMPDEST DUP4 DUP2 LT ISZERO PUSH2 0xD3A JUMPI DUP1 DUP3 ADD MLOAD DUP2 DUP5 ADD MSTORE PUSH1 0x20 DUP2 ADD SWAP1 POP PUSH2 0xD1F JUMP JUMPDEST PUSH1 0x0 DUP5 DUP5 ADD MSTORE POP POP POP POP JUMP JUMPDEST PUSH1 0x0 PUSH1 0x1F NOT PUSH1 0x1F DUP4 ADD AND SWAP1 POP SWAP2 SWAP1 POP JUMP JUMPDEST PUSH1 0x0 PUSH2 0xD62 DUP3 PUSH2 0xD00 JUMP JUMPDEST PUSH2 0xD6C DUP2 DUP6 PUSH2 0xD0B JUMP JUMPDEST SWAP4 POP PUSH2 0xD7C DUP2 DUP6 PUSH1 0x20 DUP7 ADD PUSH2 0xD1C JUMP JUMPDEST PUSH2 0xD85 DUP2 PUSH2 0xD46 JUMP JUMPDEST DUP5 ADD SWAP2 POP POP SWAP3 SWAP2 POP POP JUMP JUMPDEST PUSH1 0x0 DUP2 SWAP1 POP SWAP2 SWAP1 POP JUMP JUMPDEST PUSH2 0xDA3 DUP2 PUSH2 0xD90 JUMP JUMPDEST DUP3 MSTORE POP POP JUMP JUMPDEST PUSH1 0x0 PUSH1 0x60 DUP4 ADD PUSH1 0x0 DUP4 ADD MLOAD DUP5 DUP3 SUB PUSH1 0x0 DUP7 ADD MSTORE PUSH2 0xDC6 DUP3 DUP3 PUSH2 0xD57 JUMP JUMPDEST SWAP2 POP POP PUSH1 0x20 DUP4 ADD MLOAD PUSH2 0xDDB PUSH1 0x20 DUP7 ADD DUP3 PUSH2 0xD9A JUMP JUMPDEST POP PUSH1 0x40 DUP4 ADD MLOAD PUSH2 0xDEE PUSH1 0x40 DUP7 ADD DUP3 PUSH2 0xD9A JUMP JUMPDEST POP DUP1 SWAP2 POP POP SWAP3 SWAP2 POP POP JUMP JUMPDEST PUSH1 0x0 PUSH2 0xE05 DUP4 DUP4 PUSH2 0xDA9 JUMP JUMPDEST SWAP1 POP SWAP3 SWAP2 POP POP JUMP JUMPDEST PUSH1 0x0 PUSH1 0x20 DUP3 ADD SWAP1 POP SWAP2 SWAP1 POP JUMP JUMPDEST PUSH1 0x0 PUSH2 0xE25 DUP3 PUSH2 0xCD4 JUMP JUMPDEST PUSH2 0xE2F DUP2 DUP6 PUSH2 0xCDF JUMP JUMPDEST SWAP4 POP DUP4 PUSH1 0x20 DUP3 MUL DUP6 ADD PUSH2 0xE41 DUP6 PUSH2 0xCF0 JUMP JUMPDEST DUP1 PUSH1 0x0 JUMPDEST DUP6 DUP2 LT ISZERO PUSH2 0xE7D JUMPI DUP5 DUP5 SUB DUP10 MSTORE DUP2 MLOAD PUSH2 0xE5E DUP6 DUP3 PUSH2 0xDF9 JUMP JUMPDEST SWAP5 POP PUSH2 0xE69 DUP4 PUSH2 0xE0D JUMP JUMPDEST SWAP3 POP PUSH1 0x20 DUP11 ADD SWAP10 POP POP PUSH1 0x1 DUP2 ADD SWAP1 POP PUSH2 0xE45 JUMP JUMPDEST POP DUP3 SWAP8 POP DUP8 SWAP6 POP POP POP POP POP POP SWAP3 SWAP2 POP POP JUMP JUMPDEST PUSH1 0x0 PUSH1 0x20 DUP3 ADD SWAP1 POP DUP2 DUP2 SUB PUSH1 0x0 DUP4 ADD MSTORE PUSH2 0xEA9 DUP2 DUP5 PUSH2 0xE1A JUMP JUMPDEST SWAP1 POP SWAP3 SWAP2 POP POP JUMP JUMPDEST PUSH1 0x0 PUSH1 0x40 MLOAD SWAP1 POP SWAP1 JUMP JUMPDEST PUSH1 0x0 DUP1 REVERT JUMPDEST PUSH1 0x0 DUP1 REVERT JUMPDEST PUSH2 0xECE DUP2 PUSH2 0xD90 JUMP JUMPDEST DUP2 EQ PUSH2 0xED9 JUMPI PUSH1 0x0 DUP1 REVERT JUMPDEST POP JUMP JUMPDEST PUSH1 0x0 DUP2 CALLDATALOAD SWAP1 POP PUSH2 0xEEB DUP2 PUSH2 0xEC5 JUMP JUMPDEST SWAP3 SWAP2 POP POP JUMP JUMPDEST PUSH1 0x0 PUSH1 0x20 DUP3 DUP5 SUB SLT ISZERO PUSH2 0xF07 JUMPI PUSH2 0xF06 PUSH2 0xEBB JUMP JUMPDEST JUMPDEST PUSH1 0x0 PUSH2 0xF15 DUP5 DUP3 DUP6 ADD PUSH2 0xEDC JUMP JUMPDEST SWAP2 POP POP SWAP3 SWAP2 POP POP JUMP JUMPDEST PUSH2 0xF27 DUP2 PUSH2 0xD90 JUMP JUMPDEST DUP3 MSTORE POP POP JUMP JUMPDEST PUSH1 0x0 PUSH1 0x20 DUP3 ADD SWAP1 POP PUSH2 0xF42 PUSH1 0x0 DUP4 ADD DUP5 PUSH2 0xF1E JUMP JUMPDEST SWAP3 SWAP2 POP POP JUMP JUMPDEST PUSH1 0x0 DUP1 PUSH1 0x0 DUP1 PUSH1 0x0 PUSH1 0xA0 DUP7 DUP9 SUB SLT ISZERO PUSH2 0xF64 JUMPI PUSH2 0xF63 PUSH2 0xEBB JUMP JUMPDEST JUMPDEST PUSH1 0x0 PUSH2 0xF72 DUP9 DUP3 DUP10 ADD PUSH2 0xEDC JUMP JUMPDEST SWAP6 POP POP PUSH1 0x20 PUSH2 0xF83 DUP9 DUP3 DUP10 ADD PUSH2 0xEDC JUMP JUMPDEST SWAP5 POP POP PUSH1 0x40 PUSH2 0xF94 DUP9 DUP3 DUP10 ADD PUSH2 0xEDC JUMP JUMPDEST SWAP4 POP POP PUSH1 0x60 PUSH2 0xFA5 DUP9 DUP3 DUP10 ADD PUSH2 0xEDC JUMP JUMPDEST SWAP3 POP POP PUSH1 0x80 PUSH2 0xFB6 DUP9 DUP3 DUP10 ADD PUSH2 0xEDC JUMP JUMPDEST SWAP2 POP POP SWAP3 SWAP6 POP SWAP3 SWAP6 SWAP1 SWAP4 POP JUMP JUMPDEST PUSH1 0x0 DUP1 REVERT JUMPDEST PUSH1 0x0 DUP1 REVERT JUMPDEST PUSH32 0x4E487B7100000000000000000000000000000000000000000000000000000000 PUSH1 0x0 MSTORE PUSH1 0x41 PUSH1 0x4 MSTORE PUSH1 0x24 PUSH1 0x0 REVERT JUMPDEST PUSH2 0x1005 DUP3 PUSH2 0xD46 JUMP JUMPDEST DUP2 ADD DUP2 DUP2 LT PUSH8 0xFFFFFFFFFFFFFFFF DUP3 GT OR ISZERO PUSH2 0x1024 JUMPI PUSH2 0x1023 PUSH2 0xFCD JUMP JUMPDEST JUMPDEST DUP1 PUSH1 0x40 MSTORE POP POP POP JUMP JUMPDEST PUSH1 0x0 PUSH2 0x1037 PUSH2 0xEB1 JUMP JUMPDEST SWAP1 POP PUSH2 0x1043 DUP3 DUP3 PUSH2 0xFFC JUMP JUMPDEST SWAP2 SWAP1 POP JUMP JUMPDEST PUSH1 0x0 PUSH8 0xFFFFFFFFFFFFFFFF DUP3 GT ISZERO PUSH2 0x1063 JUMPI PUSH2 0x1062 PUSH2 0xFCD JUMP JUMPDEST JUMPDEST PUSH2 0x106C DUP3 PUSH2 0xD46 JUMP JUMPDEST SWAP1 POP PUSH1 0x20 DUP2 ADD SWAP1 POP SWAP2 SWAP1 POP JUMP JUMPDEST DUP3 DUP2 DUP4 CALLDATACOPY PUSH1 0x0 DUP4 DUP4 ADD MSTORE POP POP POP JUMP JUMPDEST PUSH1 0x0 PUSH2 0x109B PUSH2 0x1096 DUP5 PUSH2 0x1048 JUMP JUMPDEST PUSH2 0x102D JUMP JUMPDEST SWAP1 POP DUP3 DUP2 MSTORE PUSH1 0x20 DUP2 ADD DUP5 DUP5 DUP5 ADD GT ISZERO PUSH2 0x10B7 JUMPI PUSH2 0x10B6 PUSH2 0xFC8 JUMP JUMPDEST JUMPDEST PUSH2 0x10C2 DUP5 DUP3 DUP6 PUSH2 0x1079 JUMP JUMPDEST POP SWAP4 SWAP3 POP POP POP JUMP JUMPDEST PUSH1 0x0 DUP3 PUSH1 0x1F DUP4 ADD SLT PUSH2 0x10DF JUMPI PUSH2 0x10DE PUSH2 0xFC3 JUMP JUMPDEST JUMPDEST DUP2 CALLDATALOAD PUSH2 0x10EF DUP5 DUP3 PUSH1 0x20 DUP7 ADD PUSH2 0x1088 JUMP JUMPDEST SWAP2 POP POP SWAP3 SWAP2 POP POP JUMP JUMPDEST PUSH1 0x0 DUP1 PUSH1 0x40 DUP4 DUP6 SUB SLT ISZERO PUSH2 0x110F JUMPI PUSH2 0x110E PUSH2 0xEBB JUMP JUMPDEST JUMPDEST PUSH1 0x0 DUP4 ADD CALLDATALOAD PUSH8 0xFFFFFFFFFFFFFFFF DUP2 GT ISZERO PUSH2 0x112D JUMPI PUSH2 0x112C PUSH2 0xEC0 JUMP JUMPDEST JUMPDEST PUSH2 0x1139 DUP6 DUP3 DUP7 ADD PUSH2 0x10CA JUMP JUMPDEST SWAP3 POP POP PUSH1 0x20 PUSH2 0x114A DUP6 DUP3 DUP7 ADD PUSH2 0xEDC JUMP JUMPDEST SWAP2 POP POP SWAP3 POP SWAP3 SWAP1 POP JUMP JUMPDEST PUSH32 0x4E487B7100000000000000000000000000000000000000000000000000000000 PUSH1 0x0 MSTORE PUSH1 0x22 PUSH1 0x4 MSTORE PUSH1 0x24 PUSH1 0x0 REVERT JUMPDEST PUSH1 0x0 PUSH1 0x2 DUP3 DIV SWAP1 POP PUSH1 0x1 DUP3 AND DUP1 PUSH2 0x119B JUMPI PUSH1 0x7F DUP3 AND SWAP2 POP JUMPDEST PUSH1 0x20 DUP3 LT DUP2 SUB PUSH2 0x11AE JUMPI PUSH2 0x11AD PUSH2 0x1154 JUMP JUMPDEST JUMPDEST POP SWAP2 SWAP1 POP JUMP JUMPDEST PUSH1 0x0 DUP3 DUP3 MSTORE PUSH1 0x20 DUP3 ADD SWAP1 POP SWAP3 SWAP2 POP POP JUMP JUMPDEST PUSH32 0x4F6E6C7920686F73742063616E2061636365737320746F207468697320617265 PUSH1 0x0 DUP3 ADD MSTORE PUSH32 0x6121000000000000000000000000000000000000000000000000000000000000 PUSH1 0x20 DUP3 ADD MSTORE POP JUMP JUMPDEST PUSH1 0x0 PUSH2 0x1221 PUSH1 0x22 DUP4 PUSH2 0x11B4 JUMP JUMPDEST SWAP2 POP PUSH2 0x122C DUP3 PUSH2 0x11C5 JUMP JUMPDEST PUSH1 0x40 DUP3 ADD SWAP1 POP SWAP2 SWAP1 POP JUMP JUMPDEST PUSH1 0x0 PUSH1 0x20 DUP3 ADD SWAP1 POP DUP2 DUP2 SUB PUSH1 0x0 DUP4 ADD MSTORE PUSH2 0x1250 DUP2 PUSH2 0x1214 JUMP JUMPDEST SWAP1 POP SWAP2 SWAP1 POP JUMP JUMPDEST PUSH32 0x43616E646964617465204944206E6F7420666F756E6421000000000000000000 PUSH1 0x0 DUP3 ADD MSTORE POP JUMP JUMPDEST PUSH1 0x0 PUSH2 0x128D PUSH1 0x17 DUP4 PUSH2 0x11B4 JUMP JUMPDEST SWAP2 POP PUSH2 0x1298 DUP3 PUSH2 0x1257 JUMP JUMPDEST PUSH1 0x20 DUP3 ADD SWAP1 POP SWAP2 SWAP1 POP JUMP JUMPDEST PUSH1 0x0 PUSH1 0x20 DUP3 ADD SWAP1 POP DUP2 DUP2 SUB PUSH1 0x0 DUP4 ADD MSTORE PUSH2 0x12BC DUP2 PUSH2 0x1280 JUMP JUMPDEST SWAP1 POP SWAP2 SWAP1 POP JUMP JUMPDEST PUSH32 0x52656D6F76696E672063616E6469646174652069732070726F68696269746564 PUSH1 0x0 DUP3 ADD MSTORE PUSH32 0x207768656E20656C656374696F6E2068617320737461727465642E0000000000 PUSH1 0x20 DUP3 ADD MSTORE POP JUMP JUMPDEST PUSH1 0x0 PUSH2 0x131F PUSH1 0x3B DUP4 PUSH2 0x11B4 JUMP JUMPDEST SWAP2 POP PUSH2 0x132A DUP3 PUSH2 0x12C3 JUMP JUMPDEST PUSH1 0x40 DUP3 ADD SWAP1 POP SWAP2 SWAP1 POP JUMP JUMPDEST PUSH1 0x0 PUSH1 0x20 DUP3 ADD SWAP1 POP DUP2 DUP2 SUB PUSH1 0x0 DUP4 ADD MSTORE PUSH2 0x134E DUP2 PUSH2 0x1312 JUMP JUMPDEST SWAP1 POP SWAP2 SWAP1 POP JUMP JUMPDEST PUSH32 0x4E487B7100000000000000000000000000000000000000000000000000000000 PUSH1 0x0 MSTORE PUSH1 0x32 PUSH1 0x4 MSTORE PUSH1 0x24 PUSH1 0x0 REVERT JUMPDEST PUSH32 0x4E487B7100000000000000000000000000000000000000000000000000000000 PUSH1 0x0 MSTORE PUSH1 0x11 PUSH1 0x4 MSTORE PUSH1 0x24 PUSH1 0x0 REVERT JUMPDEST PUSH1 0x0 PUSH2 0x13BE DUP3 PUSH2 0xD90 JUMP JUMPDEST SWAP2 POP PUSH2 0x13C9 DUP4 PUSH2 0xD90 JUMP JUMPDEST SWAP3 POP DUP3 DUP3 SUB SWAP1 POP DUP2 DUP2 GT ISZERO PUSH2 0x13E1 JUMPI PUSH2 0x13E0 PUSH2 0x1384 JUMP JUMPDEST JUMPDEST SWAP3 SWAP2 POP POP JUMP JUMPDEST PUSH1 0x0 DUP2 SLOAD SWAP1 POP PUSH2 0x13F6 DUP2 PUSH2 0x1183 JUMP JUMPDEST SWAP1 POP SWAP2 SWAP1 POP JUMP JUMPDEST PUSH1 0x0 DUP2 SWAP1 POP DUP2 PUSH1 0x0 MSTORE PUSH1 0x20 PUSH1 0x0 KECCAK256 SWAP1 POP SWAP2 SWAP1 POP JUMP JUMPDEST PUSH1 0x0 PUSH1 0x20 PUSH1 0x1F DUP4 ADD DIV SWAP1 POP SWAP2 SWAP1 POP JUMP JUMPDEST PUSH1 0x0 DUP3 DUP3 SHL SWAP1 POP SWAP3 SWAP2 POP POP JUMP JUMPDEST PUSH1 0x0 PUSH1 0x8 DUP4 MUL PUSH2 0x145F PUSH32 0xFFFFFFFFFFFFFFFFFFFFFFFFFFFFFFFFFFFFFFFFFFFFFFFFFFFFFFFFFFFFFFFF DUP3 PUSH2 0x1422 JUMP JUMPDEST PUSH2 0x1469 DUP7 DUP4 PUSH2 0x1422 JUMP JUMPDEST SWAP6 POP DUP1 NOT DUP5 AND SWAP4 POP DUP1 DUP7 AND DUP5 OR SWAP3 POP POP POP SWAP4 SWAP3 POP POP POP JUMP JUMPDEST PUSH1 0x0 DUP2 SWAP1 POP SWAP2 SWAP1 POP JUMP JUMPDEST PUSH1 0x0 PUSH2 0x14A6 PUSH2 0x14A1 PUSH2 0x149C DUP5 PUSH2 0xD90 JUMP JUMPDEST PUSH2 0x1481 JUMP JUMPDEST PUSH2 0xD90 JUMP JUMPDEST SWAP1 POP SWAP2 SWAP1 POP JUMP JUMPDEST PUSH1 0x0 DUP2 SWAP1 POP SWAP2 SWAP1 POP JUMP JUMPDEST PUSH2 0x14C0 DUP4 PUSH2 0x148B JUMP JUMPDEST PUSH2 0x14D4 PUSH2 0x14CC DUP3 PUSH2 0x14AD JUMP JUMPDEST DUP5 DUP5 SLOAD PUSH2 0x142F JUMP JUMPDEST DUP3 SSTORE POP POP POP POP JUMP JUMPDEST PUSH1 0x0 SWAP1 JUMP JUMPDEST PUSH2 0x14E9 PUSH2 0x14DC JUMP JUMPDEST PUSH2 0x14F4 DUP2 DUP5 DUP5 PUSH2 0x14B7 JUMP JUMPDEST POP POP POP JUMP JUMPDEST JUMPDEST DUP2 DUP2 LT ISZERO PUSH2 0x1518 JUMPI PUSH2 0x150D PUSH1 0x0 DUP3 PUSH2 0x14E1 JUMP JUMPDEST PUSH1 0x1 DUP2 ADD SWAP1 POP PUSH2 0x14FA JUMP JUMPDEST POP POP JUMP JUMPDEST PUSH1 0x1F DUP3 GT ISZERO PUSH2 0x155D JUMPI PUSH2 0x152E DUP2 PUSH2 0x13FD JUMP JUMPDEST PUSH2 0x1537 DUP5 PUSH2 0x1412 JUMP JUMPDEST DUP2 ADD PUSH1 0x20 DUP6 LT ISZERO PUSH2 0x1546 JUMPI DUP2 SWAP1 POP JUMPDEST PUSH2 0x155A PUSH2 0x1552 DUP6 PUSH2 0x1412 JUMP JUMPDEST DUP4 ADD DUP3 PUSH2 0x14F9 JUMP JUMPDEST POP POP JUMPDEST POP POP POP JUMP JUMPDEST PUSH1 0x0 DUP3 DUP3 SHR SWAP1 POP SWAP3 SWAP2 POP POP JUMP JUMPDEST PUSH1 0x0 PUSH2 0x1580 PUSH1 0x0 NOT DUP5 PUSH1 0x8 MUL PUSH2 0x1562 JUMP JUMPDEST NOT DUP1 DUP4 AND SWAP2 POP POP SWAP3 SWAP2 POP POP JUMP JUMPDEST PUSH1 0x0 PUSH2 0x1599 DUP4 DUP4 PUSH2 0x156F JUMP JUMPDEST SWAP2 POP DUP3 PUSH1 0x2 MUL DUP3 OR SWAP1 POP SWAP3 SWAP2 POP POP JUMP JUMPDEST DUP2 DUP2 SUB PUSH2 0x15B7 JUMPI POP POP PUSH2 0x168F JUMP JUMPDEST PUSH2 0x15C0 DUP3 PUSH2 0x13E7 JUMP JUMPDEST PUSH8 0xFFFFFFFFFFFFFFFF DUP2 GT ISZERO PUSH2 0x15D9 JUMPI PUSH2 0x15D8 PUSH2 0xFCD JUMP JUMPDEST JUMPDEST PUSH2 0x15E3 DUP3 SLOAD PUSH2 0x1183 JUMP JUMPDEST PUSH2 0x15EE DUP3 DUP3 DUP6 PUSH2 0x151C JUMP JUMPDEST PUSH1 0x0 PUSH1 0x1F DUP4 GT PUSH1 0x1 DUP2 EQ PUSH2 0x161D JUMPI PUSH1 0x0 DUP5 ISZERO PUSH2 0x160B JUMPI DUP3 DUP8 ADD SLOAD SWAP1 POP JUMPDEST PUSH2 0x1615 DUP6 DUP3 PUSH2 0x158D JUMP JUMPDEST DUP7 SSTORE POP PUSH2 0x1688 JUMP JUMPDEST PUSH1 0x1F NOT DUP5 AND PUSH2 0x162B DUP8 PUSH2 0x13FD JUMP JUMPDEST SWAP7 POP PUSH2 0x1636 DUP7 PUSH2 0x13FD JUMP JUMPDEST PUSH1 0x0 JUMPDEST DUP3 DUP2 LT ISZERO PUSH2 0x165E JUMPI DUP5 DUP10 ADD SLOAD DUP3 SSTORE PUSH1 0x1 DUP3 ADD SWAP2 POP PUSH1 0x1 DUP6 ADD SWAP5 POP PUSH1 0x20 DUP2 ADD SWAP1 POP PUSH2 0x1639 JUMP JUMPDEST DUP7 DUP4 LT ISZERO PUSH2 0x167B JUMPI DUP5 DUP10 ADD SLOAD PUSH2 0x1677 PUSH1 0x1F DUP10 AND DUP3 PUSH2 0x156F JUMP JUMPDEST DUP4 SSTORE POP JUMPDEST PUSH1 0x1 PUSH1 0x2 DUP9 MUL ADD DUP9 SSTORE POP POP POP JUMPDEST POP POP POP POP POP POP JUMPDEST JUMP JUMPDEST PUSH32 0x4E487B7100000000000000000000000000000000000000000000000000000000 PUSH1 0x0 MSTORE PUSH1 0x31 PUSH1 0x4 MSTORE PUSH1 0x24 PUSH1 0x0 REVERT JUMPDEST PUSH32 0x456C656374696F6E20686173206E6F7420737461727465642079657421000000 PUSH1 0x0 DUP3 ADD MSTORE POP JUMP JUMPDEST PUSH1 0x0 PUSH2 0x16F6 PUSH1 0x1D DUP4 PUSH2 0x11B4 JUMP JUMPDEST SWAP2 POP PUSH2 0x1701 DUP3 PUSH2 0x16C0 JUMP JUMPDEST PUSH1 0x20 DUP3 ADD SWAP1 POP SWAP2 SWAP1 POP JUMP JUMPDEST PUSH1 0x0 PUSH1 0x20 DUP3 ADD SWAP1 POP DUP2 DUP2 SUB PUSH1 0x0 DUP4 ADD MSTORE PUSH2 0x1725 DUP2 PUSH2 0x16E9 JUMP JUMPDEST SWAP1 POP SWAP2 SWAP1 POP JUMP JUMPDEST PUSH32 0x4174206C656173742032206F72206D6F72652043616E64696461746573206172 PUSH1 0x0 DUP3 ADD MSTORE PUSH32 0x6520726571756972656420746F2073746172742074686520456C656374696F6E PUSH1 0x20 DUP3 ADD MSTORE PUSH32 0x2100000000000000000000000000000000000000000000000000000000000000 PUSH1 0x40 DUP3 ADD MSTORE POP JUMP JUMPDEST PUSH1 0x0 PUSH2 0x17AE PUSH1 0x41 DUP4 PUSH2 0x11B4 JUMP JUMPDEST SWAP2 POP PUSH2 0x17B9 DUP3 PUSH2 0x172C JUMP JUMPDEST PUSH1 0x60 DUP3 ADD SWAP1 POP SWAP2 SWAP1 POP JUMP JUMPDEST PUSH1 0x0 PUSH1 0x20 DUP3 ADD SWAP1 POP DUP2 DUP2 SUB PUSH1 0x0 DUP4 ADD MSTORE PUSH2 0x17DD DUP2 PUSH2 0x17A1 JUMP JUMPDEST SWAP1 POP SWAP2 SWAP1 POP JUMP JUMPDEST PUSH1 0x0 PUSH2 0x17EF DUP3 PUSH2 0xD90 JUMP JUMPDEST SWAP2 POP PUSH2 0x17FA DUP4 PUSH2 0xD90 JUMP JUMPDEST SWAP3 POP DUP3 DUP3 MUL PUSH2 0x1808 DUP2 PUSH2 0xD90 JUMP JUMPDEST SWAP2 POP DUP3 DUP3 DIV DUP5 EQ DUP4 ISZERO OR PUSH2 0x181F JUMPI PUSH2 0x181E PUSH2 0x1384 JUMP JUMPDEST JUMPDEST POP SWAP3 SWAP2 POP POP JUMP JUMPDEST PUSH1 0x0 PUSH2 0x1831 DUP3 PUSH2 0xD90 JUMP JUMPDEST SWAP2 POP PUSH2 0x183C DUP4 PUSH2 0xD90 JUMP JUMPDEST SWAP3 POP DUP3 DUP3 ADD SWAP1 POP DUP1 DUP3 GT ISZERO PUSH2 0x1854 JUMPI PUSH2 0x1853 PUSH2 0x1384 JUMP JUMPDEST JUMPDEST SWAP3 SWAP2 POP POP JUMP JUMPDEST PUSH32 0x43616E6469646174652045786973746564210000000000000000000000000000 PUSH1 0x0 DUP3 ADD MSTORE POP JUMP JUMPDEST PUSH1 0x0 PUSH2 0x1890 PUSH1 0x12 DUP4 PUSH2 0x11B4 JUMP JUMPDEST SWAP2 POP PUSH2 0x189B DUP3 PUSH2 0x185A JUMP JUMPDEST PUSH1 0x20 DUP3 ADD SWAP1 POP SWAP2 SWAP1 POP JUMP JUMPDEST PUSH1 0x0 PUSH1 0x20 DUP3 ADD SWAP1 POP DUP2 DUP2 SUB PUSH1 0x0 DUP4 ADD MSTORE PUSH2 0x18BF DUP2 PUSH2 0x1883 JUMP JUMPDEST SWAP1 POP SWAP2 SWAP1 POP JUMP JUMPDEST PUSH32 0x416464696E672063616E6469646174652069732070726F686962697465642077 PUSH1 0x0 DUP3 ADD MSTORE PUSH32 0x68656E20656C656374696F6E2068617320737461727465642E00000000000000 PUSH1 0x20 DUP3 ADD MSTORE POP JUMP JUMPDEST PUSH1 0x0 PUSH2 0x1922 PUSH1 0x39 DUP4 PUSH2 0x11B4 JUMP JUMPDEST SWAP2 POP PUSH2 0x192D DUP3 PUSH2 0x18C6 JUMP JUMPDEST PUSH1 0x40 DUP3 ADD SWAP1 POP SWAP2 SWAP1 POP JUMP JUMPDEST PUSH1 0x0 PUSH1 0x20 DUP3 ADD SWAP1 POP DUP2 DUP2 SUB PUSH1 0x0 DUP4 ADD MSTORE PUSH2 0x1951 DUP2 PUSH2 0x1915 JUMP JUMPDEST SWAP1 POP SWAP2 SWAP1 POP JUMP JUMPDEST PUSH2 0x1961 DUP3 PUSH2 0xD00 JUMP JUMPDEST PUSH8 0xFFFFFFFFFFFFFFFF DUP2 GT ISZERO PUSH2 0x197A JUMPI PUSH2 0x1979 PUSH2 0xFCD JUMP JUMPDEST JUMPDEST PUSH2 0x1984 DUP3 SLOAD PUSH2 0x1183 JUMP JUMPDEST PUSH2 0x198F DUP3 DUP3 DUP6 PUSH2 0x151C JUMP JUMPDEST PUSH1 0x0 PUSH1 0x20 SWAP1 POP PUSH1 0x1F DUP4 GT PUSH1 0x1 DUP2 EQ PUSH2 0x19C2 JUMPI PUSH1 0x0 DUP5 ISZERO PUSH2 0x19B0 JUMPI DUP3 DUP8 ADD MLOAD SWAP1 POP JUMPDEST PUSH2 0x19BA DUP6 DUP3 PUSH2 0x158D JUMP JUMPDEST DUP7 SSTORE POP PUSH2 0x1A22 JUMP JUMPDEST PUSH1 0x1F NOT DUP5 AND PUSH2 0x19D0 DUP7 PUSH2 0x13FD JUMP JUMPDEST PUSH1 0x0 JUMPDEST DUP3 DUP2 LT ISZERO PUSH2 0x19F8 JUMPI DUP5 DUP10 ADD MLOAD DUP3 SSTORE PUSH1 0x1 DUP3 ADD SWAP2 POP PUSH1 0x20 DUP6 ADD SWAP5 POP PUSH1 0x20 DUP2 ADD SWAP1 POP PUSH2 0x19D3 JUMP JUMPDEST DUP7 DUP4 LT ISZERO PUSH2 0x1A15 JUMPI DUP5 DUP10 ADD MLOAD PUSH2 0x1A11 PUSH1 0x1F DUP10 AND DUP3 PUSH2 0x156F JUMP JUMPDEST DUP4 SSTORE POP JUMPDEST PUSH1 0x1 PUSH1 0x2 DUP9 MUL ADD DUP9 SSTORE POP POP POP JUMPDEST POP POP POP POP POP POP JUMP JUMPDEST PUSH1 0x0 PUSH2 0x1A35 DUP3 PUSH2 0xD90 JUMP JUMPDEST SWAP2 POP PUSH32 0xFFFFFFFFFFFFFFFFFFFFFFFFFFFFFFFFFFFFFFFFFFFFFFFFFFFFFFFFFFFFFFFF DUP3 SUB PUSH2 0x1A67 JUMPI PUSH2 0x1A66 PUSH2 0x1384 JUMP JUMPDEST JUMPDEST PUSH1 0x1 DUP3 ADD SWAP1 POP SWAP2 SWAP1 POP JUMP JUMPDEST PUSH32 0x496E76616C69642043616E646964617465204944210000000000000000000000 PUSH1 0x0 DUP3 ADD MSTORE POP JUMP JUMPDEST PUSH1 0x0 PUSH2 0x1AA8 PUSH1 0x15 DUP4 PUSH2 0x11B4 JUMP JUMPDEST SWAP2 POP PUSH2 0x1AB3 DUP3 PUSH2 0x1A72 JUMP JUMPDEST PUSH1 0x20 DUP3 ADD SWAP1 POP SWAP2 SWAP1 POP JUMP JUMPDEST PUSH1 0x0 PUSH1 0x20 DUP3 ADD SWAP1 POP DUP2 DUP2 SUB PUSH1 0x0 DUP4 ADD MSTORE PUSH2 0x1AD7 DUP2 PUSH2 0x1A9B JUMP JUMPDEST SWAP1 POP SWAP2 SWAP1 POP JUMP INVALID LOG2 PUSH5 0x6970667358 0x22 SLT KECCAK256 PUSH29 0x7990646B9F404C9A1358A4B72D9A88C5BA8CB86607F9091A900FA20E24 PUSH28 0x3C64736F6C6343000818003300000000000000000000000000000000 "
        },
        "methodIdentifiers": {
          "addCandidate(string,uint256)": "e23cec7b",
          "getCandidates()": "06a49fce",
          "getCandidates_votecount(uint256)": "f84028d5",
          "getElection_time()": "2ed986a7",
          "getResetElection_count()": "4f84d8d8",
          "removeCandidate(uint256)": "09e9d7e2",
          "resetElection()": "e8f30523",
          "startElection(uint256,uint256,uint256,uint256,uint256)": "7af87410"
        }
      }
    }
  }
}